# 驴C贸mo crear una direcci贸n multifirma con Bitcoin Core?
###### tags: `bitcoin` `cli` `tx`

_Lo que necesitas saber para crear, fondear y gastar una direcci贸n multifirma usando tu nodo de *Bitcoin Core*_

**Tabla de contenido**
[TOC]

## Autor
EntrePlanctonyBallenas. 
Twitter para correcciones, comentarios o sugerencias: [@entreplanctony1](https://twitter.com/Entreplanctony1)

El presente tutorial fue elaborado para el [Seminario socr谩tico de Mastering Bitcoin](https://libreriadesatoshi.com/) a trav茅s de [@libreriadesatoshi](https://twitter.com/libdesatoshi).

En el siguiente enlace puedes encontrar la documentaci贸n de referencia:
[Sending a Transaction with a Multisig](https://github.com/BlockchainCommons/Learning-Bitcoin-from-the-Command-Line/blob/master/06_1_Sending_a_Transaction_to_a_Multisig.md)
:::success
:bulb:**驴Tienes un nodo de bitcoin?**
En este tutorial explicamos como usar la linea de comando de bitcoin core (bitcoin-cli), por lo que debes tener un nodo de bitcoin, estos pasos sirven igual para testnet o mainnet. Si no has instalado un nodo o no sabes como usar la testnet puedes hacerlo consultando los [Tutoriales sobre Nodos de Bitcoin](/jprsYssCTvuunqevvvzkZw).

NOTA: Los ejemplos de este tutorial se corren en testnet. Tambi茅n se asume que tienes una wallet inicializada y cargada. Si no sabes c贸mo crear una wallet puedes ver el tutorial para [Configurar una wallet en Bitcoin Core](/EvZ1uVQZTSiuZ9HCbp7eWQ)
:::

## 驴Qu茅 es una transacci贸n multifirma?
*Es una transacci贸n que permite que m煤ltiples llaves privadas habiliten el gasto de un saldo.*

En una transacci贸n t铆pica de `P2PKH` 贸 `SegWit`, los _bitcoins_ se env铆an a una direcci贸n basada en una clave p煤blica, lo que a su vez significa que se requiere la clave privada relacionada para desbloquear la transacci贸n, permitiendo reutilizar los fondos. Pero, 驴qu茅 pasar铆a si pudiera bloquear una transacci贸n con m煤ltiples llaves privadas? Esto permitir铆a enviar fondos a un grupo de personas, donde todas esas personas tienen que aceptar reutilizar los fondos.

## Crear una direcci贸n multifirma
*Las direcciones multifirma (o multisig) son creadas usando las llaves p煤blicas de m煤ltiples wallets.*

Para crear una direcci贸n multifirma es necesario definir 2 variables:
- **n** que ser谩 el n煤mero total de _**llaves p煤blicas que crear谩n**_ la direcci贸n multisig.
- **m** que ser谩 el n煤mero total de _**firmas requeridas**_ del total de **n** llaves que se van a requerir _en un futuro_ para gastar el saldo almacenado en la direcci贸n multisig.

:::info
Para este tutorial vamos a crear un ejemplo d贸nde _**n=3**_ y _**m=2**_, es decir que para gastar los fondos bloqueados en nuestra direcci贸n multisg, se requeri谩n s贸lo 2 de 3 firmas totales.
:::
### Obtener las llaves p煤blicas para crear la multisig

Con el objetivo de aumentar la privacidad siempre ser谩 recomendable crear una nueva direcci贸n y de esta nueva direcci贸n obtener las llaves p煤blicas que vamos a utilizar.

++Los siguientes comandos deben correrse en distintos nodos cada uno con una wallet inicializada y trabajando bajo la misma red, o en su defecto deben correrse en una wallet que permita extraer la llave p煤blica de una nueva direcci贸n de _bitcoin_.++

Crea una nueva direcci贸n:
`bitcoin-cli getnewaddress`
Obt茅n la llave p煤blica que corresponde a la direcci贸n que acabas de crear:
`bitcoin-cli getaddressinfo direcci贸n`

Ejemplo para 3 nodos distintos (solo se inidca el campo `pubkey` para abreviar).

*Nodo1 - wallet: prueba1*
``` gherkin
bitcoin-cli getnewaddress
tb1qn9dzxae5q8qf7uqa8746687q23fus7plqk55g9
bitcoin-cli getaddressinfo tb1qn9dzxae5q8qf7uqa8746687q23fus7plqk55g9
{
...
"pubkey": "03789e08453a347f882eeb40351021f8c7e50d13b091c31f5af98d0f705831dd51",
...
]
}
```
*Nodo2 - wallet: prueba2*
``` gherkin
bitcoin-cli getnewaddress
tb1qvfyre6axx43mxmjduf7kunkt66umxd8lsc2jwv
bitcoin-cli getaddressinfo tb1qvfyre6axx43mxmjduf7kunkt66umxd8lsc2jwv
{
...
"pubkey": "026a41e38659a849b1f465b76305422bcb392ab4a941d828563217e369c587e0cb",
...
]
}
```
*Nodo3 - wallet: prueba3*
``` gherkin
bitcoin-cli getnewaddress
tb1qfgzy3uk7g9284dmgqlw87gfrz6edggaek9v33g
bitcoin-cli getaddressinfo tb1qfgzy3uk7g9284dmgqlw87gfrz6edggaek9v33g
{
...
"pubkey": "037b215b4f61201b61851444dfb72fce522e13f485abaa19f5d7e24dbca29ea150",
...
]
}
```
### El comando createmultisig
En el software de *Bitcoin Core* el comando para crear una direcci贸n multifirma se llama `createmulstsig` y el formato para el mismo fue el siguiente:

``` gherkin
bitcoin-cli createmultisig nrequired keys="[\"llave-1\",\"llave-2\", \"llave-3\",...,\"llave-n\"]" "Tipo_de_direccion"
```
Podemos explicar la sintaxis del comando **createmultisig** de la siguiente manera:
- "**nrequired**" es un valor de n煤mero entero que representa el valor **m** que es el n煤mero total de _**firmas requeridas**_ del total de **n** llaves que se van a requerir _en un futuro_ para gastar el saldo almacenado en la direcci贸n multisig. 
- "**keys=**" indica que los valores a continuaci贸n son un arreglo JSON que define las llaves p煤blicas utilizadas para crear la direcci贸n multifirma.
- "**llave-n**" son el total de llaves que van a usarse para bloquear el saldo dentro de la direcci贸n.
- "**Tipo_de_direccion**" es un valor de texto que puede ser una de las siguientes 3 opciones: "**legacy**", "**p2sh-segwit**" y "**bech32**". 
- Los simbolos **[ ]** representan el inicio y el final del arreglo JSON que define cu谩les son las llaves p煤blicas utilizadas.
- Las comillas **" "** indican que estas pasandole un valor de texto al comando.
- Los s铆mbolos \ solo sirven para poder pasar las comillas dentro del arreglo JSON.

Con estas reglas de sintaxis para este comando es suficiente para crear nuestra direcci贸n y la misma quedar铆a de la siguiente manera, con el resultado del comando:

``` gherkin=
bitcoin-cli createmultisig 2 "[\"03789e08453a347f882eeb40351021f8c7e50d13b091c31f5af98d0f705831dd51\",  \"026a41e38659a849b1f465b76305422bcb392ab4a941d828563217e369c587e0cb\",  \"037b215b4f61201b61851444dfb72fce522e13f485abaa19f5d7e24dbca29ea150\"]" "p2sh-segwit"
{
  "address": "2N5EN6faB92fg5cBTYXxzyWuL8d574HGGoJ",
  "redeemScript": "522103789e08453a347f882eeb40351021f8c7e50d13b091c31f5af98d0f705831dd5121026a41e38659a849b1f465b76305422bcb392ab4a941d828563217e369c587e0cb21037b215b4f61201b61851444dfb72fce522e13f485abaa19f5d7e24dbca29ea15053ae",
  "descriptor": "sh(wsh(multi(2,03789e08453a347f882eeb40351021f8c7e50d13b091c31f5af98d0f705831dd51,026a41e38659a849b1f465b76305422bcb392ab4a941d828563217e369c587e0cb,037b215b4f61201b61851444dfb72fce522e13f485abaa19f5d7e24dbca29ea150)))#6eu2t9wt"
}
```
Y podemos interpretar el resultado del comando de la siguiente forma:

- **address** es lo que se entregar谩 a las personas que desean enviar fondos. Notar谩s que tiene un nuevo prefijo de **2**, que es una direcci贸n P2SH-SegWit. Eso es porque, createmultisig en realidad est谩 creando un tipo de direcci贸n totalmente nuevo llamado direcci贸n P2SH. Funciona exactamente como una direcci贸n P2PKH est谩ndar para enviar fondos, pero dado que esta ha sido construida para requerir m煤ltiples direcciones, deber谩 usar m谩s trabajo para gastarlas.

:::info
 TESTNET vs MAINNET: En *testnet*, el prefijo para las direcciones **P2SH** es **2**, mientras que en *mainnet*, es **3**.
:::
- **redeemScript** es lo que necesita para gastar los fondos (junto con las claves privadas para "**m**" de las "**n**" direcciones).
- **descriptor** es la descripci贸n estandarizada de una direcci贸n y proporciona una forma de importar esta direcci贸n a otra m谩quina, utilizando el RPC *importmulti*.

### Guarda la informaci贸n
Para que _en un futuro_ puedas gastar el _bitcoin_ que quedo bloqueado dentro de la direcci贸n multi firma debes guardar toda la salida del comando **createmultisig** (y tambi茅n guarda la wallet a la que pertenece cada direcci贸n).

Puedes recrear la salida del comando, pero requieres introducir las llaves privadas en el mismo orden que lo hiciste la primera vez, cualquier cambio en el orden producir谩 una direcci贸n distinta a la original.

:::danger
:floppy_disk: Debido a que la informaci贸n de una direcci贸n multifirma no esta asociada a una sola llave privada, *Bitcoin Core* no tiene la habilidad de guardar en tu wallet la informaci贸n que generaste con la salida del comando _**createmultisig**_, por lo que debes guardar esta informaci贸n de manera manual.
:::
### Depositar a la direcci贸n multifirma
A pesar de que la direcci贸n creada con **createmultisig** es una **P2SH** se utiliza exactamente igual que cualquier direcci贸n **P2PKH** y se puede enviar _bitcoin_ o _test-coins_ de la misma manera que a cualquier otra direcci贸n.

## Gastar los fondos de una direcci贸n multifirma
Los pasos para "_gastar_" los fondos que estan bloqueados en una direcci贸n multifirma son m谩s complejos que para una transacci贸n normal, esto es en parte porque la informaci贸n con la que se construy贸 la direcci贸n no reside en una sola wallet. Primero hay que empezar desde el nodo que va a construir la transacci贸n que "_gastar谩_" los fondos bloqueados.

### Importar la direcci贸n multifirma
En el nodo en el cual vas a gastar el bitcoin bloqueado en la transacci贸n multisig debes primero avisarle al nodo que vas a utilizar una direcci贸n que no tiene listada en su wallet, para ello hay que importar la direcci贸n utilizando la informaci贸n del campo **descriptor** y el comando `importmulti`. El comando tambi茅n requiere un arreglo de *JSON* y la sintaxis ser铆a:

```gherkin
bitcoin-cli importmulti '[{"desc": "descriptor-direcci贸n-multisig", "timestamp": "now", "watchonly": true}]'
```
- **desc** es para indicar que la cadena frente a los dos puntos **:** es el **`descriptor`** de la transacci贸n a ser importada.
- **timestamp** es el sello de tiempo de la llave m谩s vieja que se utiliz贸 para crear la direcci贸n, si se especifica un valor el nodo va a re-escannear la cadena de bloques hasta el punto se帽alado para conocer las transacciones que pertencen a esta direcci贸n.
- **now** se utiliza para evitar el escaneo de la cadena de bloques, para llaves p煤blicas que se sabe que nunca han sido utilizadas.
- **watchonly** Establece si solo se deben observar las salidas encontradas.

Entonces para el ejemplo mencionado anteriormente el comando y resultado ser铆an:

```gherkin=
bitcoin-cli importmulti '[{"desc": "sh(wsh(multi(2,03789e08453a347f882eeb40351021f8c7e50d13b091c31f5af98d0f705831dd51,026a41e38659a849b1f465b76305422bcb392ab4a941d828563217e369c587e0cb,037b215b4f61201b61851444dfb72fce522e13f485abaa19f5d7e24dbca29ea150)))#6eu2t9wt", "timestamp": "now", "watchonly": true}]'
[
  {
    "success": true
  }
]
```
**`"success": true`** quiere decir que el comando no arroj贸 errores.

### Visualizar el balance de la direcci贸n multifirma
Ya que la direcci贸n fue importada a tu wallet puedes visualizar el saldo igual que una direcci贸n **p2pkh**
```gherkin=
bitcoin-cli listunspent
[
  {
    "txid": "9e78a9e84103b99517dbc5f6a6371450ae9dd53094a4c2b7e7fec2824f05801c",
    "vout": 0,
    "address": "2N5EN6faB92fg5cBTYXxzyWuL8d574HGGoJ",
    "label": "",
    "redeemScript": "0020927b1f27643d85a185047f89c8b4bb700a83955dcd71a4c90b5dc22954b87449",
    "witnessScript": "522103789e08453a347f882eeb40351021f8c7e50d13b091c31f5af98d0f705831dd5121026a41e38659a849b1f465b76305422bcb392ab4a941d828563217e369c587e0cb21037b215b4f61201b61851444dfb72fce522e13f485abaa19f5d7e24dbca29ea15053ae",
    "scriptPubKey": "a9148377dd0506970bde7594e79e1cd6226aeb37922487",
    "amount": 0.00000889,
    "confirmations": 28,
    "spendable": false,
    "solvable": true,
    "desc": "sh(wsh(multi(2,[995a2377]03789e08453a347f882eeb40351021f8c7e50d13b091c31f5af98d0f705831dd51,[62483ceb]026a41e38659a849b1f465b76305422bcb392ab4a941d828563217e369c587e0cb,[4a0448f2]037b215b4f61201b61851444dfb72fce522e13f485abaa19f5d7e24dbca29ea150)))#ht8xhg04",
    "safe": true
  }
]
```
:::warning
No confundir el campo **redeemScript** en la salida de *listunspent* ya que en esta salida el verdadero redeemScript aparece listado como **witnessScript**
:::
### Define los valores que necesitas para construir la transacci贸n

Para construir esta transacci贸n necesitamos saber la direcci贸n de dep贸sito as铆 como la cantidad a depositar, adem谩s debemos extraer los siguientes valores de la transacci贸n en la que se hizo el fondeo a la direcci贸n multifirma. Puedes consultar estos datos (excepto redeemScript que ya explicamos antes) usando el comando **getrawtransaction** que guardaremos en variables de una terminal de l铆nea de comandos para abreviar las salidas:
```gherkin=
utxo_txid="9e78a9e84103b99517dbc5f6a6371450ae9dd53094a4c2b7e7fec2824f05801c"
utxo_vout=0
utxo_amount=0.00000889
redeem_script="522103789e08453a347f882eeb40351021f8c7e50d13b091c31f5af98d0f705831dd5121026a41e38659a849b1f465b76305422bcb392ab4a941d828563217e369c587e0cb21037b215b4f61201b61851444dfb72fce522e13f485abaa19f5d7e24dbca29ea15053ae"
utxo_spk="a9148377dd0506970bde7594e79e1cd6226aeb37922487"
receptor="tb1qqph0266fvykngkul8saumv0ay95zsudk3a9462"
amount=0.00000600
```
:::spoiler *utxo_spk*
Es el valor **hex** de **scriptPubKey** en el arreglo de **vout** de la transacci贸n a gastar.
:::

Ahora puedes crear la transacci贸n con todas las variables y almacenar la salida en una variable llamada **rawtxhex**:
```gherkin=7
rawtxhex=$(bitcoin-cli createrawtransaction '''[ { "txid": "'$utxo_txid'", "vout": '$utxo_vout' } ]''' '''{ "'$receptor'": '$amount'}''')
echo $rawtxhex
02000000011c80054f82c2fee7b7c2a49430d59dae501437a6f6c5db1795b90341e8a9789e0000000000ffffffff015802000000000000160014006ef56b49612d345b9f3c3bcdb1fd21682871b600000000
```
### Firmar la transacci贸n
Para poder desbloquear los fondos hay que cumplir las condiciones para gastar la direcci贸n multifirma, en este ejemplo es necesario firmar la transacci贸n con **2** de **3** firmas posibles.

Entonces dentro de cada nodo hay que [activar la wallet](https://hackmd.io/EvZ1uVQZTSiuZ9HCbp7eWQ?view#Activar-y-Desactivar-una-wallet) con la que se creo cada direcci贸n y obtener su llave privada.

:::danger
:no_entry_sign: Accesar tus llaves privadas directamente desde una terminal o consola es peligroso y deber铆a hacerse con mucho cuidado si se est谩 usando *bitcoin real*.
:::
*Nodo1 - wallet: prueba1*
``` json
bitcoin-cli dumpprivkey tb1qn9dzxae5q8qf7uqa8746687q23fus7plqk55g9
cUzaxbkhxjtKT2PCuyEQttCoZHPUApjVKpgds6CkoQGLUqGDNJZ3
```
*Nodo3 - wallet: prueba3*
``` json
bitcoin-cli dumpprivkey tb1qfgzy3uk7g9284dmgqlw87gfrz6edggaek9v33g
cUEoeJnbiuPi1MYjrA8XiYBnthQsUk6XwgyMR6YpRd76KYgYDadM
```
Firmamos la transacci贸n en hexadecimal que tenemos guardada en la variable **rawtxhex** usando el comando `signrawtransactionwithkey`, el comando usa la siguiente sintaxis:
```sass
bitcoin-cli -named signrawtransactionwithkey hexstring=tx-en-hex prevtxs='''[ { "txid": "'$utxo_txid'", "vout": '$utxo_vout', "scriptPubKey": "'$utxo_spk'", "redeemScript": "'$redeem_script'", "amount": '$utxo_amount'} ]''' privkeys='["Lista_de_llaves_privadas"]'`
```
- **-named** es un argumento que podemos usar en cualquier comando de bitcoin-cli para indicar el nombre de los campos que el comando requiere, se usa si vas a cambiar el orden de los campos requeridos por el comando.
- **hexstring** es la salida de nuestra nueva transacci贸n de gasto codificada en hexadecimal.
- **prevtxs** es un arreglo de *JSON* que define la transacci贸n de entrada, estos campos son necesarios ya que el comando requiere esta informaci贸n para saber si el *redeem_script* es v谩lido.
- **privkeys** es una lista de las llaves privadas que van a firmar la transacci贸n.

En este ejemplo asumimos que estamos en el nodo1 por lo que solo firmamos con la ++primera llave privada++:
``` json
bitcoin-cli -named signrawtransactionwithkey hexstring=$rawtxhex prevtxs='''[ { "txid": "'$utxo_txid'", "vout": '$utxo_vout', "scriptPubKey": "'$utxo_spk'", "redeemScript": "'$redeem_script'", "amount": '$utxo_amount'} ]''' privkeys='["cUzaxbkhxjtKT2PCuyEQttCoZHPUApjVKpgds6CkoQGLUqGDNJZ3"]'
{
  "hex": "020000000001011c80054f82c2fee7b7c2a49430d59dae501437a6f6c5db1795b90341e8a9789e0000000023220020927b1f27643d85a185047f89c8b4bb700a83955dcd71a4c90b5dc22954b87449ffffffff015802000000000000160014006ef56b49612d345b9f3c3bcdb1fd21682871b604004730440220195bdc4f812960c2ed3d716632a109bc5742dc90e0fb819f9bde0e4789a2a15d02202fd7f04ce059cb550e9f81514944d757014e4cd8e6aaddcf88357a21ae6db59f010069522103789e08453a347f882eeb40351021f8c7e50d13b091c31f5af98d0f705831dd5121026a41e38659a849b1f465b76305422bcb392ab4a941d828563217e369c587e0cb21037b215b4f61201b61851444dfb72fce522e13f485abaa19f5d7e24dbca29ea15053ae00000000",
  "complete": false,
  "errors": [
    {
      "txid": "9e78a9e84103b99517dbc5f6a6371450ae9dd53094a4c2b7e7fec2824f05801c",
      "vout": 0,
      "witness": [
        "",
        "30440220195bdc4f812960c2ed3d716632a109bc5742dc90e0fb819f9bde0e4789a2a15d02202fd7f04ce059cb550e9f81514944d757014e4cd8e6aaddcf88357a21ae6db59f01",
        "",
        "522103789e08453a347f882eeb40351021f8c7e50d13b091c31f5af98d0f705831dd5121026a41e38659a849b1f465b76305422bcb392ab4a941d828563217e369c587e0cb21037b215b4f61201b61851444dfb72fce522e13f485abaa19f5d7e24dbca29ea15053ae"
      ],
      "scriptSig": "220020927b1f27643d85a185047f89c8b4bb700a83955dcd71a4c90b5dc22954b87449",
      "sequence": 4294967295,
      "error": "CHECK(MULTI)SIG failing with non-zero signature (possibly need more signatures)"
    }
  ]
}
``` 
:::warning
En este punto la salida arroja un mensaje de **error** esto es algo normal ya que el script de desbloqueo a煤n no esta completo.
:::
El campo **hex** de la salida resultante de `signrawtransactionwithkey` lo enviamos al segundo firmante (y lo guardamos en **sigrawtxhex1**), para nuestro ejemplo ser谩 el nodo3, el nodo3 ahora a帽ade una nueva firma con su llave privada:
``` json
bitcoin-cli -named signrawtransactionwithkey hexstring=$sigrawtxhex1 prevtxs='''[ { "txid": "'$utxo_txid'", "vout": '$utxo_vout', "scriptPubKey": "'$utxo_spk'", "redeemScript": "'$redeem_script'", "amount": '$utxo_amount'} ]''' privkeys='["cUEoeJnbiuPi1MYjrA8XiYBnthQsUk6XwgyMR6YpRd76KYgYDadM"]'
{
  "hex": "020000000001011c80054f82c2fee7b7c2a49430d59dae501437a6f6c5db1795b90341e8a9789e0000000023220020927b1f27643d85a185047f89c8b4bb700a83955dcd71a4c90b5dc22954b87449ffffffff015802000000000000160014006ef56b49612d345b9f3c3bcdb1fd21682871b604004730440220195bdc4f812960c2ed3d716632a109bc5742dc90e0fb819f9bde0e4789a2a15d02202fd7f04ce059cb550e9f81514944d757014e4cd8e6aaddcf88357a21ae6db59f0147304402200fd5ad162d9b3c87951c3efeb8e2217c438f9244a766932fcff226b3256e3ce0022034db6a20a39c2f4cd26f2e3fab42cfb9680003c47ca9cfe8e8fc763345c1a9420169522103789e08453a347f882eeb40351021f8c7e50d13b091c31f5af98d0f705831dd5121026a41e38659a849b1f465b76305422bcb392ab4a941d828563217e369c587e0cb21037b215b4f61201b61851444dfb72fce522e13f485abaa19f5d7e24dbca29ea15053ae00000000",
  "complete": true
}

``` 
La salida ahora indica **"complete": true**, ahora el segundo firmante entonces va a obtener el campo **hex** de la salida resultante de `signrawtransactionwithkey` y esta es la transacci贸n en hexadecimal que podemos enviar a la red (la guardamos en la variable **signedtx**).


### Enviar la transacci贸n
Cualquiera que tenga la transacci贸n en hexadecimal con las firmas requeridas puede publicar la transacci贸n a la red.

Verificamos que los campos de la transacci贸n sean v谩lidos y enviamos la transacci贸n a la red:
``` json
bitcoin-cli decoderawtransaction $signedtx
{
  "txid": "cf1e77641084a1df7ad88336fc0c9cb6e9d6e38750856203f18ec08c9398a9be",
  "hash": "aae2a31f89d49f8b87c8dd712942a2218c22145a4ee9b7e8b6d613462bfa759e",
  "version": 2,
  "size": 371,
  "vsize": 181,
  "weight": 722,
  "locktime": 0,
  "vin": [
    {
      "txid": "9e78a9e84103b99517dbc5f6a6371450ae9dd53094a4c2b7e7fec2824f05801c",
      "vout": 0,
      "scriptSig": {
        "asm": "0020927b1f27643d85a185047f89c8b4bb700a83955dcd71a4c90b5dc22954b87449",
        "hex": "220020927b1f27643d85a185047f89c8b4bb700a83955dcd71a4c90b5dc22954b87449"
      },
      "txinwitness": [
        "",
        "30440220195bdc4f812960c2ed3d716632a109bc5742dc90e0fb819f9bde0e4789a2a15d02202fd7f04ce059cb550e9f81514944d757014e4cd8e6aaddcf88357a21ae6db59f01",
        "304402200fd5ad162d9b3c87951c3efeb8e2217c438f9244a766932fcff226b3256e3ce0022034db6a20a39c2f4cd26f2e3fab42cfb9680003c47ca9cfe8e8fc763345c1a94201",
        "522103789e08453a347f882eeb40351021f8c7e50d13b091c31f5af98d0f705831dd5121026a41e38659a849b1f465b76305422bcb392ab4a941d828563217e369c587e0cb21037b215b4f61201b61851444dfb72fce522e13f485abaa19f5d7e24dbca29ea15053ae"
      ],
      "sequence": 4294967295
    }
  ],
  "vout": [
    {
      "value": 0.00000600,
      "n": 0,
      "scriptPubKey": {
        "asm": "0 006ef56b49612d345b9f3c3bcdb1fd21682871b6",
        "hex": "0014006ef56b49612d345b9f3c3bcdb1fd21682871b6",
        "address": "tb1qqph0266fvykngkul8saumv0ay95zsudk3a9462",
        "type": "witness_v0_keyhash"
      }
    }
  ]
}

bitcoin-cli sendrawtransaction $signedtx
cf1e77641084a1df7ad88336fc0c9cb6e9d6e38750856203f18ec08c9398a9be
```
En este ejemplo se envi贸 un total de 600sats y se pagaron 289sats de fee.